:100000000C94CF020C9458280C9416030C941603ED
:100010000C9416030C9416030C9416030C941603FC
:100020000C9416030C9416030C94E4220C94A02256
:100030000C94DF230C9416030C9416030C941603F3
:100040000C9416030C9416030C9416030C941603CC
:100050000C9416030C94BB230C9416030C941603F7
:100060000C9416030C9416030C9416030C941603AC
:100070000C9416030C9416030C9416030C9416039C
:100080000C9416030C9416030C9416030C9416038C
:100090000C9416030C9416030C9416030C9416037C
:1000A0000C9416030C9416030C94160329001E00DE
:1000B0001F002000210022002B0014001A0008005D
:1000C00015001700E10004001600070009000A00EF
:1000D000E0001D001B0006001900050000000000E4
:1000E000E2002C000151A8002D0027002600250069
:1000F000240023003300130012000C0018001C0021
:10010000280034000F000E000D000B002E003800F8
:100110003700360010001100000000004C002A00DB
:100120000151AE0035003A003B003C003D003E006E
:10013000390001005200B10001000100010050002F
:1001400051004F00B30001000100E3000100B200C4
:10015000B5000100000000000100010001000100E5
:10016000440043004200410040003F0001003000D5
:100170002F0001000100010046000100C15C900059
:100180009000010045003100010001000100010064
:100190000000000001000100010001000100010059
:1001A0000100010001000100010001000100010047
:1001B0000100010001000100010001000100010037
:1001C0000100010001000100010001000000000029
:1001D0000100010001000100010001000100010017
:1001E0000100010001000100010001000100010007
:1001F00001000100010001000100010001000100F7
:1002000001000100010001000000000001000100E8
:1002100001000100010001000100010001000100D6
:1002200001000100010001000100010001000100C6
:1002300001000100010001000100010001000100B6
:1002400001000100000000000100010001000100A8
:100250000100010001000100010001000100010096
:100260000100010001000100010001000100010086
:100270000100010001000100010001000100010076
:1002800000000000010001000100010000047F3FA8
:100290001F643214643214783C1E1E140A050001D7
:1002A0000101010101010101020202020202020236
:1002B0000203030303030303030404040404040408
:1002C00005050505050606060606070707070708CC
:1002D000080808090909090A0A0A0B0B0B0C0C0C7F
:1002E0000D0D0D0E0E0E0F0F0F1010111111121219
:1002F00013131414151516161717181819191A1A96
:100300001B1B1C1D1D1E1E1F2020212222232424F6
:10031000252626272829292A2B2C2D2D2E2F303132
:100320003232333435363738393A3B3C3D3E3F4044
:100330004142434445464748494A4C4D4E4F50512F
:100340005354555658595A5B5D5E5F6162646566E9
:1003500068696B6C6D6F7072737577787A7B7D7E70
:100360008082838587888A8C8E8F91939596989AC0
:100370009C9EA0A2A3A5A7A9ABADAFB1B3B5B7BAD8
:10038000BCBEC0C2C4C6C9CBCDCFD1D4D6D8DBDDAC
:10039000DFE2E4E7E9EBEEF0F3F5F8FAFDFFFFAAA0
:1003A0007F55402223252628292A2C2D2F30323311
:1003B0003536383A3B3D3E4042434547494A4C4E2C
:1003C0005051535557595A5C5E6062646668696B58
:1003D0006D6F71737577797B7D7F81838587898A5E
:1003E0008C8E90929496989A9C9E9FA1A3A5A7A864
:1003F000AAACAEAFB1B3B4B6B8B9BBBCBEBFC1C294
:10040000C3C5C6C7C9CACBCCCDCED0D1D2D2D3D426
:10041000D5D6D7D7D8D9D9DADADBDBDBDCDCDCDC44
:10042000DCDDDDDDDDDCDCDCDCDCDBDBDBDADAD912
:10043000D9D8D7D7D6D5D4D3D2D2D1D0CECDCCCB94
:10044000CAC9C7C6C5C3C2C1BFBEBCBBB9B8B6B4B2
:10045000B3B1AFAEACAAA8A7A5A3A19F9E9C9A9842
:10046000969492908E8C8A89878583817F7D7B7913
:10047000777573716F6D6B6968666462605E5C5AF4
:100480005957555351504E4C4A4947454342403EB7
:100490003D3B3A3836353332302F2D2C2A29282649
:1004A00025232205010980A101850319012AB7002E
:1004B000150126B700950175108100C0050C0901D2
:1004C000A101850419012AA002150126A0029501A7
:1004D00075108100C005010906A101050719E02971
:1004E000E7150025019508750181029501750881C0
:1004F000010507190029FF150026FF00950675085C
:1005000081000508190129059505750191029501DC
:1005100075039101C009023B00020100A0FA090421
:100520000000010301010009211101000122400026
:100530000705810308000A09040100010300000007
:100540000921110100012232000705820320000A5F
:10055000120100020000000810CB56420004010204
:10056000000126034B0065006500620069006F0012
:1005700020004900720069007300200052006500ED
:1005800076002E002000340000000E034B006500B2
:100590006500620069006F00000004030904112473
:1005A0001FBECFEFDAE0DEBFCDBF04B603FE27C02B
:1005B0008091280390912903A0912A03B0912B03E5
:1005C0008730904BA740B04BD1F410922803109283
:1005D000290310922A0310922B0314BE84B7877F3D
:1005E00084BF0FB6F894A8958091600088618093CD
:1005F0006000109260000FBEE0E0F8E3099511E0A2
:10060000A0E0B1E0ECE1F6E502C005900D92A63E57
:10061000B107D9F723E0A6EEB1E001C01D92A832E0
:10062000B207E1F70E9406240C94E82A0C9400001B
:10063000E8EDF0E080818E7F80831092E2001092DE
:10064000DA001092E100A0EEB0E08C9181608C9312
:1006500080818F77808319BCA7EDB0E08C918E7F6D
:100660008C9380818F7E808310920A03089520915D
:10067000E4003091E50095E6A9012091EC00822F7D
:10068000817020FF06C08091E80080FF06C080E0F6
:1006900008952091E80022FD1AC080911703882355
:1006A00089F0853089F08091EB0085FD0FC02091A5
:1006B000E4003091E50042175307F9F29150E1F65A
:1006C00084E0089582E0089583E0089581E008952C
:1006D000EF92FF920F931F93CF937C018B010E94A7
:1006E0003703C82F811117C08091E80085FD0BC02A
:1006F0008091E8008E778093E8000E94370388237A
:1007000099F3C82F08C0F70181917F018093F10010
:100710000150110949F78C2FCF911F910F91FF9034
:10072000EF9008958091190387FF13C08091E8002E
:1007300082FF06C08091E8008B778093E80004C0B8
:10074000809117038111F2CF0895809117038823B8
:10075000D9F38091E80080FFF8CF8091E8008E7790
:10076000ECCF982F9093E900242F762F50E0891733
:1007700031F07091EC002091ED005091F00021FDDE
:1007800007C09F5F973071F78093E90081E008957B
:100790003091EB003E7F3093EB003091ED003D7FD8
:1007A0003093ED003091EB0031603093EB007093AB
:1007B000EC002093ED005093F0002091EE0027FD17
:1007C000E0CF80E00895CF92DF92EF92FF920F93F7
:1007D0001F93CF93DF93C8EDD0E088818F7E88830D
:1007E000E7EDF0E080818160808384E082BF81E07A
:1007F00080930A0388818E7F888302EE10E0F801DF
:1008000010821092DA0081EEC82ED12CF6011082EF
:1008100088818F77888388818068888388818F7DAD
:10082000888319BC109217031092180310921603B4
:100830001092150390EEE92EF12CF70180818B7F49
:10084000808388818160888342E060E080E00E944C
:10085000B103F60180818E7F8083F8018081816001
:100860008083808188608083F70180818E7F808390
:10087000888180618883DF91CF911F910F91FF90D4
:10088000EF90DF90CF900895FC0180911F0390912D
:10089000200386179707A0F06115710529F4909140
:1008A000E8009E779093E80090E06115710551F49F
:1008B000911108C08091E80082FF34C080E0089563
:1008C000BC01F2CF809117038823C1F18530C1F1BB
:1008D0008091E80083FD30C08091E80082FDEACF7E
:1008E0008091E80080FFE1CF8091F3002091F20039
:1008F000382F6115710519F02830310558F091E055
:100900002830310509F090E02091E8002E772093FF
:10091000E800CBCF81918093F100615071092F5F86
:100920003F4FE7CF80911703882341F0853041F096
:100930008091E80083FFBECF81E0089582E00895B2
:1009400083E008950895089580910C0308959C0113
:100950004FB7F8948091030390910403A09105038D
:10096000B09106034FBF821B930B08952FB7F894E5
:100970006091030370910403809105039091060335
:100980002FBF08952FB7F89480910303909104032B
:10099000A0910503B09106032FBF08952091FC029A
:1009A0003091FD022817390771F09093FD02809372
:1009B000FC02E091FA02F091FB02309721F00084F2
:1009C000F185E02D099408952091F8023091F90203
:1009D0002817390771F09093F9028093F802E0919B
:1009E000FA02F091FB02309721F00680F781E02DAA
:1009F00009940895FC01680F791F8FEF91E321910D
:100A0000822728E030E087FF09C0880F892721501E
:100A10003109C9F7E617F70791F70895880FF7CF5F
:100A2000CF92DF92EF92FF92863030F5811125C090
:100A3000909180009F77909380002D98282F30E030
:100A4000AFEFBFEF0E94482A25E030E040E050E0E1
:100A50000E94182AC9012C3764E13607A0F469E026
:100A600070E00E94F0297093890060938800FF90E5
:100A7000EF90DF90CF90089585E09091800090688E
:100A800090938000DBCF2A50374D4F4F5F4F942F0C
:100A9000832F722F662725EF38E241E050E00E9455
:100AA000182A69017A01CA01B9010E94D2299B0161
:100AB000AC01C701B6010E94D229672F782F892F78
:100AC00099276115710521E08207910561F66FEFA5
:100AD0007FEFC9CFFA01811101C0FB010994E8EC55
:100AE000F2E0118282818460828308958091F20213
:100AF000982F9E7F29F4817082608093F20208957E
:100B00008A34E8F381708864F8CFAF92BF92DF92A5
:100B1000EF92FF920F931F93CF93DF93082F162F1F
:100B2000E901E42FF0E0E256FD4F611110C0E491BD
:100B30005E2F4E2F4983E8835A83DF91CF911F9117
:100B40000F91FF90EF90DF90BF90AF900895E62E49
:100B5000F12C4491D42EE42FF0E026E0829FC001D6
:100B600011242FEF30E0B9010E94F029802F90E08E
:100B7000880F991F55E5569FD001579FB00D11243E
:100B80008A1B9B0B982F990F890F5901AE18BF082C
:100B9000AE9ED001AF9EB00DBE9EB00D11245B2F56
:100BA000189F80011124012F11275901A01AB10AA1
:100BB000AE9E8001AF9E100DBE9E100D11245901F6
:100BC000A81AB108AE9CC001AF9C900DBE9C900DC0
:100BD0001124892F9927281B390B2E9FC0012F9F85
:100BE000900D3E9F900D1124E92F62307105A1F008
:100BF00050F46115710509F49DCF6130710581F0E4
:100C0000EB2F512F97CF6430710569F080F066307B
:100C1000710509F48FCFF4CFE42F4B2F592F8ACFD2
:100C2000E42F412F87CFEB2F542F492F83CF4B2F0A
:100C30005D2DE12F7FCF80E0089578940895F8949A
:100C4000E82FE295EF70F0E031A1282F2F7081E0BE
:100C500090E001C0880F2A95EAF7982F909593238A
:100C600091A392A1892B82A30C941D0690919402CA
:100C700092FF06C0282F28712830F9F4877F8460FE
:100C800093FF06C0282F28712831F1F4877E8461F4
:100C90002091950220FF06C0382F38713830D9F4E2
:100CA000877F816021FF06C0282F28712831D1F469
:100CB000877E816194FD877E0895282F24712430DA
:100CC000F9F68B7F8860DCCF282F2471243101F75F
:100CD0008B7E8861DDCF382F3171313019F78E7FEF
:100CE0008860E0CF282F2171213121F78E7E886125
:100CF000E1CFCF93DF93EC0182389105A9F1D8F5CC
:100D00008133910509F496C048F58932910509F4BB
:100D10008AC08A9709F495C0C11522E5D20708F068
:100D2000B6C0C11531E5D30708F026C1C83ED105CC
:100D300008F09CC0C03ED10560F5C83AD10508F066
:100D400087C0C53AD10508F0EFC0C130D10509F11F
:100D50002097F9F0C430D105E0F440C08533910507
:100D600009F45AC0C997C1F680919402837089F042
:100D7000C0EED0E00EC0833E910599F170F4803E44
:100D8000910501F1823E910539F68091940282FD30
:100D900021C0CE01DF91CF910895863E910561F18A
:100DA000873E910571F1843E910509F0B5CF8091A0
:100DB000950281FFEECF80919402C7EED0E084FDD2
:100DC0000DC0E7CF8091940280FD07C190919502FC
:100DD00090FFDFCFC3EED0E084FFDBCFD0E0C0E0F8
:100DE000D8CF8091940282FDFBC09091950290FD36
:100DF000BFCF84FFCECFF2CF8091940283FDDDCFB1
:100E0000C8CF8091940283FDEEC09091950291FF2E
:100E1000F0CFC4EED0E0BDCF8091940285FFB9CF72
:100E2000C9E2D0E0B6CF8091940285FFB2CFC5E38E
:100E3000D0E0AFCF8091940286FFABCFCAE2D0E082
:100E4000A8CF8091940286FFA4CFC1E3D0E0A1CFC8
:100E5000CF3BD10518F6C85AD0E0CC0FDD1FC058E3
:100E6000DE4F0990D881C02DD46493CFC11540E5E1
:100E7000D40708F064C0C11580E4D80708F05CC04E
:100E8000CE019A9581159F4108F483CFA7CFC11554
:100E900036E5D30718F5C11545E5D40708F084C039
:100EA000C11584E5D80708F07AC09C2F96959695D1
:100EB0009E0123703327C115D34508F462C0C1E0F9
:100EC000D0E002C0CC0FDD1F2A95E2F730E2939FFD
:100ED000C0011124C82BD92BDA685BCFC1158AE574
:100EE000D80778F4C11599E5D90708F068C0C1158D
:100EF00028E5D20708F472CFDC2FCC27C06FD06A68
:100F000048CFCE0190568115904208F067CF8D2FC3
:100F10008F710E94360690E0982F882788279F714E
:100F20009C012C2BE90149C0C55AD0E0C358DE4FC3
:100F3000C881D0E0D0642DCFDF70D06A2ACFCE0137
:100F4000E4E096958795EA95E1F783702C2F269536
:100F50002695237040E2249F90011124382B8C2F7A
:100F60008370C1E0D0E002C0CC0FDD1F8A95E2F7AC
:100F7000C22BD32BDC680DCFDC2FCC27C16FD06AFE
:100F800008CFC1E0D0E002C0CC0FDD1F2A95E2F708
:100F900020E2929FC0011124C82BD92BEBCFDC2F6C
:100FA000CC27C46FD06AF5CE8C2F0E943606C82F8E
:100FB000D0E0DC2FCC27CC27DF71D062EACE8C2F9B
:100FC0008F700E94360634E0D695C7953A95E1F7C2
:100FD000CF709C2FEC01D069DCCEC9E3D0E0D9CE34
:100FE000C2EED0E0D6CEC6EED0E0D3CE0C94B6049E
:100FF00080915602811110925602089580915502F7
:1010000090915402892B90915302892B8093E8018F
:1010100090915602992391F0892B8093E80120E06A
:101020008AEE91E0FC013191CF0131112F5FF1E0A7
:10103000803F9F07B9F721110E94F807E091FA025B
:10104000F091FB02309731F00280F381E02D88EEC1
:1010500091E009940895EAEEF1E09191891303C0BB
:10106000DF0111971C9291E0E03FF907B1F7089575
:10107000AAEEB1E0EFEF90E02D91821751F0EF3F33
:1010800019F4211101C0E92F9F5F9630A9F7EF3FB6
:1010900009F408950E2E000CFF0BE851FE4F8283D9
:1010A00008958091510290912002981301C00895F3
:1010B0008F5F8770FACFAF92BF92CF92DF92EF929D
:1010C000FF920F931F93CF93DF93C0902403D09090
:1010D0002503E0902603F09027034091570250919A
:1010E00058026091590270915A02C42AD52AE62A00
:1010F000F72ACFE1D0E0082F10E026E0929F000D04
:10110000111D11249CE3A92EBC2ED701C6010C2E63
:1011100004C0B695A795979587950A94D2F780FD58
:101120000FC0219788F7B12C8B2DDF91CF911F91A4
:101130000F91FF90EF90DF90CF90BF90AF90089508
:10114000AC9EF001AD9EF00D1124E00FF11FEE0FEB
:10115000FF1FE455FF4F859194910E9479060197F6
:1011600001F3E2CFCF93DF93EC010E945B08EC2FF9
:10117000F0E096E0D99FE00DF11D11249CE3899FDA
:10118000E00DF11D1124EE0FFF1FE455FF4F859177
:101190009491DF91CF910C947906E92FEE0FE90F2E
:1011A000EE0F8E0F982F977086958695869525E081
:1011B000829FF0011124EE50FE4F50E040E080E0AD
:1011C000219130E0092E02C0369527950A94E2F766
:1011D00021703327042E01C0220F0A94EAF7822BD4
:1011E0004F5F5F4F4530510559F70895E92FEE0FD6
:1011F000E90FEE0F8E0F982F977041E001C0440F5A
:101200009A95EAF786958695869595E0899FF001EF
:101210001124EE50FE4F30E020E070E05191DF01EC
:101220001197CB01022E02C0969587950A94E2F79A
:10123000817081958527842385278C932F5F3F4F6D
:101240002530310559F70895FC01808191810E9474
:10125000B208292F2F7092959F7092509E3078F48B
:10126000E92FF0E0E651F54D0C943A2A803F19F051
:1012700020F4883E20F481E00895843FE1F380E08B
:101280000895883EC0F3813FD1F7F5CF822F869530
:1012900086958695089590E080E00E94E40490E0B1
:1012A00080E00E94CE0410925402109253020C94DB
:1012B000FE07609324037093250380932603909385
:1012C00027030C944B090F931F9360912403709193
:1012D000250380912603909127038B019C010670C2
:1012E000112722273327063011052105310529F45E
:1012F00068601F910F910C945909677FFACF0F9383
:101300001F9341E050E060E070E004C0440F551FBF
:10131000661F771F8A95D2F7CB01BA016095709549
:101320008095909500912403109125032091260328
:101330003091270360237123822393231F910F9100
:101340000C945909909152028095892380935202FE
:10135000282F277039F4282F082E000C330B9217F2
:10136000130621F49091950292FF07C0859585950B
:1013700085950E947F091092520208950F931F9342
:1013800041E050E060E070E004C0440F551F661F6C
:10139000771F8A95D2F78091240390912503A0911D
:1013A0002603B09127038A019B01082B192B2A2BB6
:1013B0003B2BC901B8011F910F910C9459096093FF
:1013C0005702709358028093590290935A020C94DA
:1013D0004B09882341F08095909155028923809391
:1013E00055020C94FE070895882339F09091550218
:1013F000982B909355020C94FE0708959091170333
:10140000943031F5809307037093090360930803C8
:1014100082E08093E9008FEF9091E800815095FD84
:1014200006C095ED9A95F1F700008111F5CF8091F6
:10143000E80085FF0DC050E040E063E070E087E029
:1014400093E00E9468038091E8008E778093E80023
:101450000895BC0184E00C94FE09BC0183E00C9467
:10146000FE09CF93DF93EC0181E08093E9008FEFD9
:101470009091E800815095FD06C095ED9A95F1F7A1
:1014800000008111F5CF8091E80085FF14C050E085
:1014900040E068E070E0CE010E9468038091E800BF
:1014A0008E778093E80088E0FE01ADE0B3E0019024
:1014B0000D928A95E1F7DF91CF91089560917201C5
:1014C0008091F20280FF20C08091710143E0849FEF
:1014D000C001112482539D4F569A2BB12F7B3BB1F3
:1014E00030645FB7F894FC01649FE00DF11D112496
:1014F000BF0168177907D1F45FBF8FE594E00197CA
:10150000F1F700C00000089580917301909174017B
:1015100023E0829FF0011124E253FD4F8917A0F6CA
:101520001182108212828F5F3396F8CFFC014191B5
:10153000CF01E8E03BB9000000C047FF2BB9440FE2
:10154000000000C000C000C02BB900C0EA9591F7B0
:10155000D0CF0F931F93CF93DF93EC0110E000E007
:10156000909175019017110609F06CF40E945E0AC3
:101570008C8190E00196817099278C83DF91CF91C7
:101580001F910F91089520917301A801420F511DE1
:101590009A01220F331F240F351F22533D4F4C81D8
:1015A0006091F4028091F30296959017110651F024
:1015B0004CF0442349F04091F5020E9485050F5FED
:1015C0001F4FCECF4423B9F340E0F7CF8F929F92C5
:1015D000AF92BF92CF92DF92EF92FF920F931F9341
:1015E000CF93DF93EC014C81042F10E09801D801D8
:1015F0000E94482A9B01AC010E945E2A4B015C01BB
:10160000E0E2F0E0E01BF10BA5E5B0E0AC019B01EE
:101610000E945E2A6B017C019F01DF010E94402A2B
:101620009B01AC010E94692A9B01AC01280D391D68
:101630004A1D5B1DC701B6010E94182AF22E822F97
:1016400090E039E23F1560F143E0249F90011124BE
:1016500035952795122F109500E085E5E82EEF18B7
:1016600080917501081758F10E945E0A9C8181E003
:10167000992319F0903219F48FEF809370018091C3
:101680007001890F8C83DF91CF911F910F91FF9093
:10169000EF90DF90CF90BF90AF909F908F90089584
:1016A00025E530E0B901681B790B9B01220F331F40
:1016B000260F371F37FFCCCF2F5F3F4FC9CF8E2D5F
:1016C00001FD8F2D20917301622F600F7727771F07
:1016D0009B01220F331F260F371F22533D4F412FEF
:1016E0006091F4020E9485050F5FBACFEF92FF92DE
:1016F0000F931F93CF93DF93EC018C81811109C06D
:1017000081E08C831092CC0292E090936F018093E1
:101710006E01809173019091740123E0829FF0012A
:101720001124E253FD4F891768F110E003E0609146
:101730007501161768F10E945E0A80916E01209172
:10174000CC02280F2093CC0290916F01980F9093B8
:101750006F01191654F4022E000C330B40917501E1
:101760004150550B2417350734F0819580936E0155
:10177000813009F41C82DF91CF911F910F91FF906E
:10178000EF9008951182108212828F5F3396CBCF33
:10179000E12EF12C70E0C7010E94042A2091730110
:1017A000820F482F50E02091CC02022E000C330B08
:1017B000E216F306BCF020916F01022E000C330BF1
:1017C0002E153F057CF0809F9001112422533D4F40
:1017D0004091F5026091F4028091F3020E94850528
:1017E0001F5FA5CFFA01EE0FFF1FE40FF51FE253B5
:1017F000FD4F118210821282F3CF8F929F92AF928F
:10180000BF92CF92DF92EF92FF920F931F93CF93ED
:10181000DF93EC018A81BB24BA9480FD02C0BB2413
:10182000B394A09075018C81811109C081E0B81238
:1018300028C08FEF8A0D8093CB0281E08C83F12C3E
:10184000E12C4CE0942EEA14F8F00E945E0A80919C
:10185000CB0291E0B9125FC0811158C0809175012F
:1018600081508093CB021C82DF91CF911F910F9109
:10187000FF90EF90DF90CF90BF90AF909F908F90B0
:1018800008951092CB02D9CF009173010E0D1F2D38
:10189000111DC801880F991F080F191F02531D4FF2
:1018A000F80111821082128234E0C32ED12C812CD7
:1018B0008091CB02880D8D302CF1692D0E94E22998
:1018C000892F082E000C990B8E159F0591F480919D
:1018D000F5028C9DA0018D9D500D112455954795C5
:1018E0005595479598016091F4028091F3020E940A
:1018F00085058B0CF1E0CF1AD108D1F68FEFE81AED
:10190000F80AA1CF87FFDDCF8A0DDBCF815080930E
:10191000CB02BC82A9CF90E001966091750170E086
:101920000E94042A8093CB028C839ECFEF92FF9279
:101930001F93CF93DF93EC0110E0EE24EA94F12C97
:1019400060917501161770F00E945E0A9A818C8171
:1019500090FF27C08F5F8C83DF91CF911F91FF9005
:10196000EF90089520917301422F410F5527551F85
:10197000CA019A01220F331F280F391F22533D4FEE
:1019800070E0C7010E94042A962F8C814091F502D5
:101990006091F402199F800D11240E9485051F5F3C
:1019A000CFCF8150D8CF9091F20290FF14C0909188
:1019B00073012091740133E0939FF0011124E253ED
:1019C000FD4F921710F00C945E0A8183608342836E
:1019D0009F5F3396F6CF08950F931F93CF93DF93B6
:1019E00000D00F92CDB7DEB78C018091CD0281116E
:1019F0000AC09E012F5F3F4F4FEF6FEF0E9485059A
:101A00008A818093CD02F8016481613069F0809110
:101A1000CD0240E0662361F040E0623011F4409175
:101A2000CD0280E060E004C06091CD0240E080E043
:101A30000E94D30CF801848190E0019663E070E08D
:101A40000E94042A84830F900F900F90DF91CF9112
:101A50001F910F910895CF93DF9300D00F92CDB7D0
:101A6000DEB79091F20290FF0AC09E012F5F3F4FB8
:101A70000E9485054B8169818A810E94D30C0F9059
:101A80000F900F90DF91CF910895CF93DF93EC01EA
:101A9000E2EFF2E0438162818C810E942B0D8C8108
:101AA0008F5F8C83DF91CF910895CF93DF93EC010B
:101AB000EC81F0E0ED55FC4F4491E2EFF2E0628101
:101AC00081810E942B0D8C818F5F8C83DF91CF9160
:101AD00008959F92AF92BF92CF92DF92EF92FF92C2
:101AE0000F931F93CF93DF937C015B016A01809179
:101AF000930201E010E08A3010F40AE010E0C1E047
:101B0000D0E0F894B501C701F6010995982E0E941E
:101B10001D06911004C021960C171D076CF4892D29
:101B2000DF91CF911F910F91FF90EF90DF90CF90B9
:101B3000BF90AF909F900895CC9F9001CD9F300DA6
:101B4000300D112490E080E045E34A95F1F7000064
:101B5000019682179307C1F7D4CF80916402811157
:101B600010C08091D80080618093D8008AE18A9566
:101B7000F1F700C08091D90080FF0AC081E0809316
:101B8000640281E090916402913009F080E0089550
:101B900082E0809364020E94180310921703F1CF31
:101BA0000F931F930E94AD0D882321F01F910F9179
:101BB0000C94B6040E94B6040091FE021091FF023C
:101BC0002091000330910103600F711F821F931F4A
:101BD0001F910F9108950E94AD0D81110C94C204C4
:101BE0000E94D00DCB0108950E94AD0D882351F0C5
:101BF000E091FA02F091FB02309721F00190F08120
:101C0000E02D099480E00895882309F452C08238B9
:101C100071F40E94F40D81FF4CC089E30E943808E2
:101C20000E94FE0789E30E942B080C94FE0783386C
:101C300059F40E94F40D80FF3CC083E50E943808EF
:101C40000E94FE0783E5EFCF843859F40E94F40D1B
:101C500082FF2FC087E40E9438080E94FE0787E4B5
:101C6000E2CF9CEF980F913AF0F290E2980F983003
:101C700088F4877021E030E0A90102C0440F551FAD
:101C80008A95E2F7CA018095909155028923809345
:101C90005502CBCF9BE5980F933020F490E080E085
:101CA0000C94E404885A873120F490E080E00C948E
:101CB000CE040895CF93C82F882309F488C08238B2
:101CC000C1F40E94F40D81FD82C089E30E943808AE
:101CD0000E94FE072FEF81EE94E02150804090405B
:101CE000E1F700C0000089E30E942B08CF910C941B
:101CF000FE078338A1F40E94F40D80FD68C083E5DF
:101D00000E9438080E94FE072FEF81EE94E02150D8
:101D100080409040E1F700C0000083E5E5CF8438C3
:101D2000A1F40E94F40D82FD52C087E40E9438089D
:101D30000E94FE072FEF81EE94E0215080409040FA
:101D4000E1F700C0000087E4CFCF8CEF8C0F813A21
:101D500068F4EAEEF1E08191C81799F121E0E03FE3
:101D6000F207C9F78C2F0E943808C0CF80E28C0F91
:101D7000883068F4C77021E030E001C0220FCA95B6
:101D8000EAF780915502822B80935502AFCFEBE5A5
:101D9000EC0FE33040F4F0E0E358FE4F808190E038
:101DA000CF910C94E404C85AC73188F4EC2FF0E0CA
:101DB000EE0FFF1FE058FE4F80819181CF910C9470
:101DC000CE048C2F0E942B080E94FE07CBCFCF9110
:101DD00008951F93CF93DF93182FEB010E945A0EA3
:101DE0008FE99FE00197F1F700C000002197C1F74C
:101DF000812FDF91CF911F910C94040E0F931F93AD
:101E0000CF93DF93C62FD42F022FFC01828188232A
:101E1000A1F0609323030E94C20490932203809355
:101E20002103C77081E001C0880FCA95EAF7DF91EE
:101E3000CF911F910F910C94F409809123036813A3
:101E400037C080912103909122030E94A704883C0F
:101E5000910570F510E21D0FCD17B9F080E28C0FDF
:101E6000883040F4C77081E001C0880FCA95EAF756
:101E70000E94E909183048F481E09D2F977001C055
:101E8000880F9A95EAF70E94F40964E170E0802FC8
:101E90000E94E90E183098F4D77081E001C0880FD5
:101EA000DA95EAF7DF91CF911F910F910C94E90930
:101EB000C77081E001C0880FCA95EAF7F3CFDF91C0
:101EC000CF911F910F91089581110DC0662339F0B4
:101ED00064E170E089EA0E94E90E81E0089564E11E
:101EE00070E08AEAF8CF8130C1F7662321F064E11F
:101EF00070E08BEBF0CF64E170E08CEBECCF682FFF
:101F000086E090E00C94912A282F220F220F220FB6
:101F10009091F7029770922B9093F702987F21E0AF
:101F200009F420E09091F70220FB90F99093F702DA
:101F30000E9410058091F7020C947F0F8091F702A8
:101F400080FD13C081608093F702813019F489E02D
:101F50008093F7028091F7020E947F0F8091F70231
:101F60008695869586950C9410050895CF93C0911B
:101F70009502C2FB992790F9981781F080FBC2F96E
:101F8000C09395026091940284E090E00E94912AAF
:101F90006C2F82E290E0CF910C94912ACF9108951A
:101FA000CF9384E090E00E947D2AC82F82E290E0E7
:101FB0000E947D2A982F8C2FCF9108956091F20274
:101FC000669570E04BE050E083E691E00E94C52A00
:101FD000892B19F481E08093C9020E94EB0D909344
:101FE000C3028093C2028091CA0284608093CA02B5
:101FF0000895CF92DF92EF92FF926B017C010E94D5
:102000007605B701A60188E090E0FF90EF90DF90A1
:10201000CF900C94A32AAF92BF92CF92DF92EF920F
:10202000FF920F931F93CF93DF9300D00F92CDB702
:10203000DEB7182FF62E042FE22E9091F20290FFB9
:102040003AC0E92FE695AE2FB0E0A054BE4F8C9178
:102050008093C8029E7F9230E1F59E012F5F3F4F33
:10206000812F0E9485054B8169818A810E94D30C52
:102070008091F302811308C08091F4028F1104C093
:102080008091F502801729F08091CA0282608093C6
:10209000CA021093F302F092F4020093F502EE20CC
:1020A00051F06091F2027091F3028091F4029091EC
:1020B000F5020E94F90F0F900F900F90DF91CF91D2
:1020C0001F910F91FF90EF90DF90CF90BF90AF9056
:1020D0000895823019F40091F502CACF863019F4C0
:1020E0001091F302C5CF8930D9F3893109F6E9514E
:1020F0008E2F8170D82EE695F0E0E256FC4FA59029
:10210000B490C12CBB2460917501C61618F00E94D2
:102110005E0AAECF2C2D30E0A29EC001A39E900D92
:10212000B29E900D112470E00E94F029812FD110F1
:1021300013C0860F40917301420F532F511D9A0116
:10214000220F331F240F351F22533D4F402F6F2D79
:102150000E948505C394D7CF861BECCFE2EFF2E057
:10216000438121E1421B08F440E021E0628181814A
:102170000C940B10E2EFF2E0438121E1420F08F4EE
:102180004FEF21E0628181810C940B10E2EFF2E0CD
:10219000628121E1621B08F460E021E043818181DA
:1021A0000C940B10E2EFF2E0628121E1620F08F47F
:1021B0006FEF21E0438181810C940B10E2EFF2E09C
:1021C000818121E04381628188500C940B10E2EF01
:1021D000F2E0818121E043816281885F0C940B10E1
:1021E0008091F602882319F081508093F602609165
:1021F000F2027091F3028091F4029091F5020C9436
:10220000F90F8091F602833018F48F5F8093F60205
:102210006091F2027091F3028091F4029091F502C4
:102220000C94F90F9091F20290FF3BC091708111D4
:102230002EC092609093F2028091CA0281608093D6
:10224000CA02662351F06091F2027091F30280910C
:10225000F4029091F5020E94F90F6091F2026695E6
:1022600070E04BE050E083E691E00E94C52A892BA4
:10227000A9F00E946F0581E08093C50220E04091A3
:10228000F5026091F4028091F3020C940B108532F8
:1022900010F09864CFCF880F982BCCCF0E94DE0F20
:1022A000EACF089561E00C9412118091F2028695B4
:1022B000815009F484E261E00C9412118091F202E1
:1022C00086958F5F853208F081E061E00C941211F1
:1022D0009091F20290FF07C09695981720F09617FC
:1022E00010F40C945E110C945211E2EFF2E083E0D2
:1022F000808311828FEF828383831482A8ECB2E003
:1023000012968C911297836012968C9360817181E2
:10231000828193810C94F90FCF93DF9300D000D08A
:10232000CDB7DEB740918702509188026091890253
:1023300070918A022FB7F89480910303909104035F
:10234000A0910503B09106032FBF841B950BA60B2C
:10235000B70B84369105A105B10568F10E94D00D37
:102360006E5F7F4F8F4F9F4F69837A838B839C83F0
:1023700080912B0190912C018E589D4F40912A0104
:1023800050E04530510510F044E050E0BE016F5F71
:102390007F4F0E94DF2A84E090E00E941E29892B53
:1023A00061F40E94B6046093870270938802809360
:1023B000890290938A0281E001C080E00F900F9023
:1023C0000F900F90DF91CF9108958F929F92AF92CF
:1023D000BF92CF92DF92EF92FF920F931F93CF9312
:1023E000DF93EB0188809980AA80BB809FB7F89427
:1023F000C0900303D0900403E0900503F09006031F
:102400009FBFC818D908EA08FB0894E6C916D1048A
:10241000E104F10410F4442311F1E82E082E000C1D
:10242000FF089AE08902F0011124E050FF4F8381F8
:1024300094818E589D4F428150E00417150708F48F
:10244000A801B9010E94DF2AC7010E941E29892B19
:10245000A1F40E94B604688379838A839B8381E018
:10246000DF91CF911F910F91FF90EF90DF90CF9070
:10247000BF90AF909F908F90089580E0F1CF0F9321
:102480001F93CF93DF93CDB7DEB728970FB6F8949D
:10249000DEBF0FBECDBF85E0E2EFF2E0DE011196B8
:1024A00001900D928A95E1F78091C8029091C9023E
:1024B000A091CA028E839F83A88741E088858111FD
:1024C00001C040E008E010E09E012F5F3F4F6FE841
:1024D00072E086E00E94E51181111092CA022896EE
:1024E0000FB6F894DEBF0FBECDBFDF91CF911F9125
:1024F0000F9108950F931F93CF93DF930F92CDB752
:10250000DEB78091F70280FF1AC086958695869582
:10251000898341E090917E02981301C040E001E080
:1025200010E09E012F5F3F4F6BE872E085E00E9454
:10253000E5110F90DF91CF911F910F91089580E0E9
:10254000E7CF6F927F928F929F92AF92BF92CF927E
:10255000DF92EF92FF920F931F93CF93DF930F922F
:10256000CDB7DEB7862E5A016901682E880F77082D
:10257000C3010E941E29892B09F088C08AE0869D2C
:10258000F001879DF00D1124E050FF4F458150E090
:102590004115510511F041E050E08AE0869DF001BF
:1025A000879DF00D1124E050FF4F668177816E58B2
:1025B0007D4FCE0101960E94DF2AF50140815181B5
:1025C000628173812FB7F894809103039091040383
:1025D000A0910503B09106032FBF841B950BA60B9A
:1025E000B70B84369105A105B10540F4B701C801C8
:1025F0000E94FA049981891709F44FC0082C000C35
:102600009908C4010E941E29892B91F0B12C8B2DB1
:102610000F90DF91CF911F910F91FF90EF90DF907E
:10262000CF90BF90AF909F908F907F906F900895C4
:102630008AE0889DF001899DF00D1124E050FF4F44
:10264000458150E0E416F50608F4A7018AE0889D6C
:10265000F001899DF00D1124E050FF4F66817781D4
:102660006E587D4FC6010E94DF2AB701C8010E9443
:10267000FA0499818913CACF0E94B604F5016083D8
:10268000718382839383BB24B394C1CFB12CA70100
:10269000B801C6010E94DF2ABACFBB24B394F7CF9A
:1026A000CF92DF92EF92FF920F931F93CF93DF931E
:1026B0000F92CDB7DEB7EE24E394F12C09E712E0D8
:1026C0009E012F5F3F4F4EE652E063E082E00E94A2
:1026D000A112082F882321F1C090A3028C2D90E035
:1026E0009C012F543D4F79011981F9018081181BFC
:1026F000D12E80E00AC0DA94F70180818F5F808359
:1027000060E08C2D0E94640F802F1D14A4F3912F84
:1027100017FD90E0191B11110EC081110E94F607E0
:10272000802F0F90DF91CF911F910F91FF90EF902D
:10273000DF90CF9008951F5FF701808181508083E3
:1027400061E08C2D0E94640F802FE5CFCF92DF9245
:10275000EF92FF920F931F93CF93DF9300D000D09F
:102760000F92CDB7DEB76B0185E0E82EF12C03E7C1
:1027700012E09E012F5F3F4F4AE652E061E080E0A9
:102780000E94A112882349F095E0FE013196A5E64A
:10279000B2E001900D929A95E1F795E0E5E6F2E05E
:1027A000D60101900D929A95E1F70F900F900F903E
:1027B0000F900F90DF91CF911F910F91FF90EF90AD
:1027C000DF90CF9008959F92AF92BF92CF92DF9209
:1027D000EF92FF920F931F93CF93DF93CDB7DEB7A6
:1027E0002F970FB6F894DEBF0FBECDBF8E010F5FDF
:1027F0001F4F8AE0D8011D928A95E9F78CE4C82E14
:1028000081E0D82EF12CE12CAA24A394B12CF6015E
:1028100081916F018F3F09F44AC0F894E82FE29547
:10282000EF70F0E021A18F70A50102C0440F551F89
:102830008A95E2F7CA01922F982B91A392A18095D5
:10284000892382A30E941D0600C0E6E4F1E030E087
:1028500020E0912C41914F3F09F46CC0A42FA29528
:10286000AF70B0E090968C9190E04F7002C095955B
:1028700087954A95E2F780FD5DC08A2D022E01C042
:10288000880F0A94EAF7982A2F5F3F4F26303105C8
:1028900009F7F601319780818F3F11F00E941F06E2
:1028A00050EA5A95F1F7F801EE0DFF1D90828FEF77
:1028B000E81AF80A95E0E916F10409F0A8CF4AE011
:1028C00050E0B80186E992E00E94D22A7C01892B6F
:1028D00041F08AE0F801A6E9B2E001900D928A95F4
:1028E000E1F71091A102E114F10431F181E080934C
:1028F0005D020E94C20490935C0280935B0280910F
:102900005B0290915C020E94A704059770F0A6E913
:10291000B2E0E12FF0E0EC55FD4F8D91819322E084
:10292000AB39B207D1F710925D02EF2849F081E090
:1029300090E069C080E0A7CF80915D028111DFCF78
:102940000E94AD0DD82EE091A102AE01455F5F4F10
:102950007A01882309F48FC085E0DA011D928A95F7
:10296000E9F70E2F10E00C551D4F809193028A302D
:1029700008F05BC046EA53E1B701C8010E94690D47
:10298000882309F467C040E553E1B701C8010E94FC
:10299000690D882309F45EC04CE851E1B701C80114
:1029A0000E94690D882309F455C04AE752E1B70136
:1029B000C8010E94690D882309F44CC04FE352E11D
:1029C000B701C8010E94690D882309F443C0109221
:1029D0009302E091A002F0E0BF016C557D4FD7015A
:1029E0009E01205F3F4F80E0FB014191BF019D911F
:1029F000491731F0AF0141505109FA0190838D2DF3
:102A0000A217B30789F72F960FB6F894DEBF0FBE53
:102A1000CDBFDF91CF911F910F91FF90EF90DF908D
:102A2000CF90BF90AF909F90089580915E0290915B
:102A30005F020E94A704843F914008F09BCFE09181
:102A4000A002F0E0EC55FD4F108211821282138239
:102A500014826DCF809193028F3F31F08F5F80930E
:102A600093028A3008F4B5CF0E94C20490935F02AB
:102A700080935E02E4CFF0E0EC55FD4FF89485E0E2
:102A8000A3E7B2E001900D928A95E1F765E070E06E
:102A900083E792E00E94FA04809372020E941D066E
:102AA000F894E091B402F0E0EF54FD4F80818B8701
:102AB0008093790261E070E0C7010E94FA0480937C
:102AC00078020E941D06F894C0907A02D0907B0292
:102AD000E0907C02F0907D02809160029091610212
:102AE000A0916202B0916302C816D906EA06FB06FD
:102AF000D1F0C0926002D0926102E0926202F09244
:102B000063020E94AD0D81110EC00E94B604C61A68
:102B1000D70AE80AF90AC092FE02D092FF02E092B8
:102B20000003F09201030E941D06F89480917E023A
:102B30000E9410050E941D06F89480918602882349
:102B400079F180FF0DC080917F029091F20280FFA9
:102B50002BC091609093F20260E086950E94121162
:102B60008091860281FF09C020E04091820260913D
:102B70008102809180020E940B108091860282FF68
:102B800006C080918502882329F10E94DE0F809182
:102B9000860283FF03C081E08093C5021092860203
:102BA0000E941D0680E02FCF9E7F9093F2020E942C
:102BB0006F058091CA0281608093CA02FFEF20E70F
:102BC00042E0F15020404040E1F700C000000E9488
:102BD0005E0AC6CF0E946F05DACF69EE7EEF90E005
:102BE00080E00E94AF2A60E082E090E00E94912A9B
:102BF00060E083E090E00E94912A109257021092C8
:102C000058021092590210925A0260E084E090E05B
:102C10000E94912A60E082E290E00E94912A60E0A6
:102C200085E090E00E94912A60E086E090E00E94BA
:102C3000912A6FEF87E090E00E94912A40E050E0F7
:102C4000BA0188E090E00E94A32A60E08DE090E065
:102C50000E94912A40E050E0BA0188E190E00E9491
:102C6000A32A60E087E190E00E94912A40E050E0D2
:102C7000BA018CE190E00E94A32A70E060E080E25B
:102C800090E00E94AF2A40E050E0BA0188E190E075
:102C90000E94A32A0E949E0F83E00E94840FE2EF0D
:102CA000F2E080818160808386950E94521121E04C
:102CB0004FEF6FEF80E00E940B108BE00E945211EB
:102CC00040E050E0BA018FE090E00E94A32A40E08B
:102CD00050E0BA0183E190E00C94A32A90E080E0F8
:102CE0000E948B2A893E9E4F51F00E94ED158091E3
:102CF000F702847089628093F7020E947F0F86E05A
:102D000090E00E947D2A8093F702803320F0877044
:102D100088628093F7029091F702892F817090FF6B
:102D200004C0892F8695869586950C94100510927F
:102D30005502EAEEF1E086E0DF011D928A95E9F79F
:102D40000C944B091F93CF93DF93CDB7DEB7AA97AF
:102D50000FB6F894DEBF0FBECDBF89E193E020919E
:102D6000F100FC012193CF01F3E081329F07B9F715
:102D700080911A03833009F46FC0B8F4813009F4EC
:102D800046C0823009F4B0C08091E80083FF7BC266
:102D90008091190390911A039A3008F074C2E92FB8
:102DA000F0E0E850F54D0C943A2A8A3009F48BC0D3
:102DB0008B3009F46EC0893039F780911903813264
:102DC00019F780911D0390911E030297E8F68091F8
:102DD000E800877F8093E8008091E80082FF37C099
:102DE0009091F3008091F200029729F48091F10014
:102DF0008B7F813021F48091F10080930C038091CE
:102E0000E8008B778093E8000E949203BDCF809109
:102E10001903813A09F0B8CF8091E800877F809349
:102E2000E80080911D0390911E03892B61F468E0F6
:102E30008DE093E070E00E9444048091E8008B777D
:102E40008093E800A1CF60E090E080E0F3CF809134
:102E500017038111C1CF98CF80911903813A09F0EE
:102E600093CF80911D0390911E03892B09F08CCF85
:102E70008091E800877F8093E8008091E80080FFE0
:102E8000FCCF809176018093F1008091E8008E77ED
:102E9000B9CF80911903813209F076CF80911D035B
:102EA00090911E03892B09F06FCF8091E800877FF6
:102EB0008093E8000E94920380911B038093760127
:102EC0000E94971661CF80911903813209F05CCF7F
:102ED0008091E800877F8093E8000E9492038091B0
:102EE0001C0380930B0350CF80911903813A09F0A2
:102EF0004BCF8091E800877F8093E8008091E800C5
:102F000080FFFCCF80910B03BECF803899F08238D0
:102F100009F0B9C180911D038F70873008F0B3C1EB
:102F20008093E9008091EB0085FB882780F910925F
:102F3000E90006C0809115039091160391118260FB
:102F40009091E800977F9093E8008093F1001092B1
:102F5000F1008091E8008E7792C1882309F480C146
:102F6000823009F090C180911B03811183C180914F
:102F70001D038F702FEF280F263008F084C1809337
:102F8000E9002091EB0020FF75C1933031F480916E
:102F9000EB0080628093EB006DC19091EB0090613B
:102FA0009093EB0021E030E001C0220F8A95EAF710
:102FB0002093EA001092EA008091EB008860EACF4B
:102FC000811161C110911B031F778091E30080780C
:102FD000812B8093E3008091E800877F8093E80055
:102FE0000E9492038091E80080FFFCCF8091E30073
:102FF00080688093E30082E0111183E080931703DF
:1030000042C18058823008F03EC180911B039091EC
:103010001C038C3D23E09207A1F583E08A838AE2BA
:1030200089834FB7F894DE01139620E03EE051E229
:10303000E32FF0E050935700E49120FF03C0E295A6
:10304000EF703F5FEF708E2F90E0EA30C0F0C796D0
:103050008D939D932F5F243159F74FBF8091E800E6
:10306000877F8093E8006AE270E0CE0101960E94BB
:1030700044048091E8008B778093E80004C1C096F7
:10308000E7CF40911D0350911E03292F3327233092
:10309000310509F444C078F52130310509F46FC0D9
:1030A0008BE390E0E5E1F5E02230310509F0EBC07B
:1030B0002091E800277F2093E80020911F033091A2
:1030C00020038217930708F49C0140E02115310585
:1030D00009F064C0411162C08091E80082FDC9CF4F
:1030E00080911703882329F2853019F28091E80036
:1030F00083FFF2CFBECF21323105A9F12232310553
:1031000009F0C1C04115510509F443C041305105D2
:1031100009F0B9C082E390E0E3EAF4E0C9CF99276F
:1031200081309105C1F0009759F0029709F0ABC0CA
:10313000E2E6F5E0E4918E2F90E0E2E6F5E007C0EC
:10314000EAE9F5E0E4918E2F90E0EAE9F5E00097F6
:1031500009F499C0ADCFEAE8F5E0E4918E2F90E054
:10316000EAE8F5E0F4CF4115510571F04130510521
:1031700009F089C089E090E0E0E4F5E099CF82E1D0
:1031800090E0E0E5F5E094CF89E090E0E7E2F5E05B
:103190008FCF80E490E0E5EDF4E08ACF80911703D3
:1031A000882309F466CF853009F463CF8091E80065
:1031B00083FD5FCF8091E80082FD8ECF8091E80093
:1031C00080FF84CF9091F3008091F20021153105AA
:1031D00019F08830910550F041E0089709F040E07F
:1031E0008091E8008E778093E80070CF44914093FF
:1031F000F1003196215031090196E8CF803809F06D
:1032000042C08091E800877F8093E8008091180396
:103210008093F1009ECE811136C010911B031230B5
:1032200090F58091E800877F8093E8001093180361
:103230000E949203112311F084E005C08091E30005
:1032400087FDFACF81E08093170342E061EC81E0D3
:103250000E94B10342E261EC82E00E94B10313C01C
:1032600080911B03813079F481E0933009F080E094
:10327000809316031092E9008091E800877F809385
:10328000E8000E9492038091E80083FF0AC08091C9
:10329000E800877F8093E8008091EB008062809354
:1032A000EB00AA960FB6F894DEBF0FBECDBFDF913C
:1032B000CF911F9108954F925F926F927F928F925C
:1032C0009F92AF92BF92CF92DF92EF92FF920F93B5
:1032D0001F93CF93DF9300D000D00F92CDB7DEB70E
:1032E0007C01FC0183819481892B39F01081D1808C
:1032F000812F8D218F3F09F073C50F900F900F9094
:103300000F900F90DF91CF911F910F91FF90EF9051
:10331000DF90CF90BF90AF909F908F907F906F90F5
:103320005F904F9008950E945B08082F682F898155
:103330009A810E94F608E12FF0E026E0D29EE00D8F
:10334000F11D11243CE3039FE00DF11D1124EE0F4C
:10335000FF1FE455FF4F05911491F7018281043658
:10336000FDE51F0709F463C018F503363DE51307B3
:1033700079F1811172C0043F2CE5120709F447C1AD
:1033800008F057C6093D8CE5180709F43CC10A3D11
:103390009CE5190709F447C1083DECE51E0709F053
:1033A00053C626E241EE61EEC7010E94FE0E1DC02B
:1033B00005369DE5190709F446C00636EDE51E07FA
:1033C000C1F6882309F445C083E00E94BE090DC000
:1033D000882359F061E083E090E00E94912A61E047
:1033E00070E080E090E00E94DF09809152028770D7
:1033F00009F483CFF7018281882309F47ECF82E02C
:103400000F900F900F900F900F90DF91CF911F9121
:103410000F91FF90EF90DF90CF90BF90AF909F9073
:103420008F907F906F905F904F900C94A2098823AB
:1034300031F081E00E94BE090E946309D6CF81E08D
:103440000E947F09F9CF882311F082E0F3CF82E058
:10345000F7CF83E00E947F09C8CF0E3BFCE51F0732
:1034600009F490C008F068C00C3B3CE5130709F470
:1034700083C00D3B8CE5180709F482C0043F8CE53E
:10348000180709F4C4C008F0ECC5093DECE51E07B7
:1034900009F4B9C00A3DFCE51F0709F4C4C0083DA2
:1034A0002CE5120709F47DCF1092230304302DE59B
:1034B000120708F0BBC00B3F3CE5130730F4C8010E
:1034C00082509C45449708F0B6C00E94D00F90935C
:1034D00095028093940200319CE5190709F47BC1A1
:1034E00008F0FBC00830FCE51F0709F466C108F0CE
:1034F000CAC004303CE5130709F451C108F0B0C05C
:1035000002309CE5190709F444C18091940282605D
:1035100003301C4509F440C160919402109195025A
:1035200084E090E00E94912A612F82E290E00E9464
:10353000912A0E94971659CF003C9CE5190709F47F
:1035400051C0E0F1013CFCE51F0709F097CF9091D5
:10355000F702892F8695869586958F5F8F71977074
:10356000863008F04DC0880F880F880F892B809314
:10357000F7028091F7020EC085E00E94840F35CFDC
:1035800080E0FBCF8091F702982F987F79F08850E8
:103590008093F702887F91E009F490E08091F70230
:1035A00090FB80F98093F7020E947F0F8091F702D1
:1035B0008695869586950E94100517CF8091F70213
:1035C000982F969596959695953040F49F5F990F14
:1035D000990F990F8770892B8093F7028091F702DA
:1035E0008160E0CF8091F70280FF07C08E7F8093DB
:1035F000F7020E947F0F80E0DECF0E949E0FF5CE83
:103600009093F702B6CF27E245EE65EECDCE26E2E7
:1036100041EE60EEC9CE27E245EE64EEC5CE26E26D
:1036200041EE62EEC1CE28E241E0EFCF02368DE5F9
:10363000180709F44ACF0631FCE51F0709F0E1C37A
:10364000809155028A7A91E009F490E09093F1011B
:103650008111E6C089E20E9438080E94FE07C5CEAB
:103660008091940280610630FCE51F0709F494C044
:1036700080919402886007301C4508F48DC08091C9
:103680009402806289C0809194028D7F0C303CE569
:10369000130709F481C070F4809194028C600A30A1
:1036A0009CE5190709F478C008F48BC08091940256
:1036B0008E7F72C080919402877F0E30FCE51F07D9
:1036C00009F46AC0809194028B7F0F301C4508F486
:1036D00063C0809194028F7E5FC00D3F3CE513076D
:1036E00009F475C068F504319CE5190709F487C031
:1036F00080F40231FCE51F0709F471C08091940247
:103700008F7B03311C4508F447C080919402837F6E
:1037100043C00B3F3CE5130709F445C008F049C01E
:1037200005311C4509F0F8CE8091940282FB99275F
:1037300090F921E0922790FB82F990FB83F92CC04D
:103740000130EDE51E0709F450C088F48091950220
:1037500083600F3F2CE5120749F1809195028D7F20
:1037600001151D4518F1809195028C7F1FC0033013
:103770008DE5180709F452C008F44AC002361D4509
:1037800009F0CACE90919402892F8F7E94FF8061B8
:1037900003C080919402816080939402BDCE809199
:1037A00094028460F9CF80919502816080939502A4
:1037B000B3CE809195028260F9CF809194028064AB
:1037C000EBCF0E949716809194028068E5CF80919C
:1037D00095028E7FEBCF809194028F7DDDCF0E948A
:1037E0009716809194028F77D7CF80919502982F6A
:1037F000909591708E7F892B90FB81F9D7CF0E9495
:10380000971690919402892F97FB87F98058C4CF1F
:1038100061E08EE090E00E94912A7ECE60E0F9CFD8
:1038200085E319CF85E31AC481608093F2028695FF
:103830000E945211DACD45E551E16EE571E10E9439
:103840006A05D3CD4EE551E165E571E1F8CF47EE6C
:1038500050E16EED70E1F3CF46EC50E162ED70E1C6
:10386000EECF4EEA50E16AEB70E1E9CF4AEB50E16E
:103870006EEA70E1E4CF41E051E160EF70E1DFCF4B
:1038800081E0D6CF65E082E00E946811AECD68E0AD
:1038900086E0FACF64E18FE0F7CF67E185E1F4CF0E
:1038A00062E289E1F1CF83E2C3CF0E9497169FEFD6
:1038B000E4E3FCE09150E040F040E1F700C000009C
:1038C00081E08093E00080E28093D8001092C900EC
:1038D0008FE19EE40197F1F700C0000087E090EBD4
:1038E000DC018093280390932903A0932A03B093CB
:1038F0002B0388E19CE00FB6F894A89580936000B4
:103900000FBE90936000FFCF81E09BC280E099C220
:10391000812F902F0E94CD08D82EA6C2212F2F7064
:10392000A22E107F19F0A29420EFA222DD20C9F070
:10393000AA2069F080E2800F883010F081100BC05F
:1039400080915502A82AA09255020E94FE07802F5E
:103950000E945A0E18C080915402A82AA0925402C4
:10396000F4CF802F0E94040EAA2069F0A094005E7C
:10397000083010F0811046C080915502A822A09214
:1039800055020E94FE072B2D2850330B24303105A1
:1039900010F40E94F40DCC20A9F08091520280FD19
:1039A00011C0F70112828595859585950E94BE0903
:1039B000C7010E945B198091520285958595859576
:1039C0000E947F0985E0F701DE01119601900D92BA
:1039D0008A95E1F789819A810E94CD089A81E981CF
:1039E000F0E026E0929FE00DF11D11243CE3839F5F
:1039F000E00DF11D1124EE0FFF1FE455FF4F8591DF
:103A000094917BCC80915402A822A0925402B9CF09
:103A1000312F3F70932E107F103219F0929490EF57
:103A20009922882071F081E0881681F1DD20D9F19A
:103A3000AA2091F1F701858180FF89CF8F7085835E
:103A40002BC0DD20B1F090915602892D892BA11059
:103A500003C00E94F40997CFE1E0AE12FACF2091A3
:103A6000950222FD90CF981709F48DCF80935602CE
:103A70008ACFA11006C00E94F807892D0E94E9098B
:103A800082CFF1E0AF1609F47ECFF5CFDD2031F023
:103A900025E02A1508F477CF892DDBCF34E03A15DD
:103AA00008F471CFEACFAA2041F3F9E38F128DC158
:103AB0002FEF37EE83E0215030408040E1F700C027
:103AC0000000802F0E94040E5ECF812F8695869580
:103AD000837061F0813009F056CFC8019370D11026
:103AE00002C090E080E00E94CE044DCFC8019370E8
:103AF000D11002C090E080E00E94E40444CF812F06
:103B0000837009F066C0D1103ECF802F82958695D4
:103B10008770880F880F602F6F70462E512C712C84
:103B2000612C082E04C0440C551C661C771C0A949A
:103B3000D2F740E050E0BA0104FF0FC04FE050E080
:103B400060E070E004C0440F551F661F771F8A9520
:103B5000D2F74095509560957095812F8695869502
:103B60008370823019F1D8F40091570210915802F5
:103B70002091590230915A02813069F04429552927
:103B800066297729CB01BA0160237123822393230D
:103B90000E94DF09F8CE402A512A622A732ACB01FB
:103BA000BA016429752986299729F2CF4429552914
:103BB00066297729009157021091580220915902E5
:103BC00030915A02CB01BA016027712782279327CF
:103BD000DFCF8695DD2011F0812F8170882309F4D5
:103BE000D2CE802F829586958770880F880F602FA0
:103BF0006F70462E512C712C612C082E04C0440C81
:103C0000551C661C771C0A94D2F740E050E0BA01BC
:103C100004FF0FC04FE050E060E070E004C0440FCC
:103C2000551F661F771F8A95D2F74095509560956E
:103C30007095812F869586958370823019F1D8F41E
:103C4000009124031091250320912603309127032E
:103C5000813069F04429552966297729CB01BA01B9
:103C600060237123822393230E9459098CCE402A1A
:103C7000512A622A732ACB01BA016429752986293F
:103C80009729F2CF442955296629772900912403E1
:103C9000109125032091260330912703CB01BA010F
:103CA0006027712782279327DFCF1F70DD2029F03F
:103CB000812F0E94BE09802FCCCE802F0E94E9095F
:103CC000812F0E947F095FCE802F22EF821609F498
:103CD00054C0281578F030EF831639F191EF89162A
:103CE00009F443C0DD2009F46BC0A11030CE812F50
:103CF0008F7140C0E3EF8E1609F444C0F4EF8F12C9
:103D0000F1CFDD2009F451C01F71812F0E94BE093F
:103D10008091950282FD07C0E8E01E9FC00111243A
:103D2000836080935202812F25C0DD20C9F024E0FA
:103D30002A1508F428CE1F7161E070E080E090E061
:103D400004C0660F771F881F991F1A95D2F700913C
:103D50002403109125032091260330912703A0CF3F
:103D600035E03A1508F40FCEE6CF812F8F71DD20B4
:103D700009F4A7CF0E94BE0906CE812F8F71DD20E6
:103D8000C9F39FCF60E070E0CB01DD2009F46CCF78
:103D90001F7161E070E080E090E004C0660F771F63
:103DA000881F991F1A95D2F75FCF81E00E94A20960
:103DB000F1E0FA1508F0E7CD82E00E94A209E3CD18
:103DC000AA2059F0893309F473CE9FEFE9EFF0E0B0
:103DD0009150E040F040E1F772CE812F8F7171CFAA
:103DE00085E0DE01119601900D928A95E1F7F701C9
:103DF000228189819A81211196CA0E94CD08082FBB
:103E00009ACA0B352DE5120709F47ECD58F4011539
:103E10008CE5180709F449CD0F3D1C45A1F40E941B
:103E2000ED15E3CA0C35EDE51E0709F46FCD0D3530
:103E30001D4549F48091950282FB882780F991E025
:103E400089270E94B60FF7018281108101818823A2
:103E500009F45ECD812F902F0E945B08D82E682F29
:103E6000812F902F0E94F608E12FF0E026E0029FBC
:103E7000E00DF11D11243CE3D39EE00DF11D112452
:103E8000EE0FFF1FE455FF4F859194910E94790634
:103E90008C01882EF701D280A580A2945FE0A52234
:103EA000809152028770A1F0CD2CDD2091F0812FFE
:103EB000807F803421F080E2800F883048F082E0FB
:103EC0000E94A209809152028770CC24C394811170
:103ED000C12CB12EB2943FE0B322FBE0FB1508F4F5
:103EE00052CDEB2DF0E0EE5FF44D0C943A2A809128
:103EF000550282720D3C2CE5120709F4BCCC08F087
:103F000064C0073C9CE5190709F4A1CCE0F5043C2A
:103F1000FCE51F0709F48FCC40F5033C1C4509F074
:103F200092CF8091F20280FF7FCC8E7F8093F2024D
:103F30006091F2027091F3028091F4029091F50287
:103F40000E94F90F0E946F058091CA0281608093E0
:103F5000CA022FEF30E782E0215030408040E1F785
:103F600000C000000E945E0A40CA053C9CE519079B
:103F700009F468CC4EED50E167EE70E1063C1C455B
:103F800009F45DCC60CF0A3CFCE51F0709F469CC5D
:103F900070F4083C3CE5130709F45ECC42ED50E1B7
:103FA00066EC70E1093C1C4509F449CC4CCF0B3C54
:103FB000ECE51E0709F45ACC40EF50E161E071E1F5
:103FC0000C3C1C4509F43BCC3ECF023D2CE51207CE
:103FD00009F460CC98F40F3C8CE5180709F452CC36
:103FE00008F44ECC003DECE51E0709F450CC6EE021
:103FF00089E0013D1C4509F447CC25CF053D2CE562
:10400000120709F44DCC58F4033D8CE5180709F468
:1040100044CC88E1043D1C4509F40ACC14CF063D8C
:10402000ECE51E0709F43FCC0E351D4509F4DDC94A
:104030000ACF063FFCE51F0709F4F1CA08F4EBCAF2
:10404000073F3CE51307C9F00631FCE51F0709F0FF
:104050004ECF8091F1018111E5CB89E20E942B08BE
:10406000FCCA063F3CE5130709F4D9CA08F4D3CAD1
:10407000073F9CE5190709F017CA27E245EE66EEEF
:1040800093C91F93CF93DF9380911F02807FA9F480
:1040900080911C02882389F080915102D0912002E6
:1040A00060911A0270911B02A0911D02B0911E0234
:1040B000C62FC72316E0D81304C0DF91CF911F91FC
:1040C000089590E0109711F0CF3F19F40196877092
:1040D000F2CF189F9001199F300D1124F901EF5D67
:1040E000FD4F41814713F2CF40814613EFCF42810C
:1040F0004111ECCF438154814A1B5B0B483C510575
:1041000028F780911F028F70806180931F02F90150
:10411000EA5DFD4F80818F70806180838AE192E04B
:104120000E945B19DF91CF911F910C945108AF92BF
:10413000BF92CF92DF92EF92FF920F931F93CF9394
:10414000DF93CDB7DEB761970FB6F894DEBF0FBE31
:10415000CDBF8C0185E0F801DE011D9601900D9226
:104160008A95E1F7F801E2808AE1A82E82E0B82E74
:1041700060911D0270911E026115710509F432C132
:1041800090911A0240911B02892F84238F3F09F4DA
:1041900029C120813181C380D480F0901C02F601B6
:1041A000E61BF70BFF2009F4E8C080911F02582F8F
:1041B000507FE83CF10508F0ABC0511177C0FE2CF0
:1041C000431321C092131FC0E1101DC08F70806186
:1041D00080931F02C5010E945B1980911F02F801A4
:1041E00085838F2D61960FB6F894DEBF0FBECDBFCD
:1041F000DF91CF911F910F91FF90EF90DF90CF90C3
:10420000BF90AF900895CD2829F0822F83238F3F50
:1042100009F003C180E0F82FF170DF2E80FF3CC071
:10422000809151024091200256E0841315C02D87E1
:104230003E878D859E850E94B208292F22952F707A
:104240002230F0F0243018F59F70F1F0F8019581DC
:10425000907FD1F4D12C1EC090E0589FF001599F5F
:10426000F00D1124EF5DFD4F6181361306C06081B2
:10427000261303C06281E6120FC001968770D5CF66
:104280009F7011F0882331F3805E883018F3C801E5
:104290000E945B19FD2CA5CFEE2009F4A2CF8091DE
:1042A0001F02816080931F02F12C9BCF431306C035
:1042B000921304C0F801EE2009F479C0C8010E94ED
:1042C0002409882309F1EE20F9F080911F02803241
:1042D00070F020911A0230911B0238872F831986C3
:1042E000DB86CA868C87CE0107960E945B1986E022
:1042F000F801AAE1B2E001900D928A95E1F70E94DF
:104300004120FF24F3946DCFC8010E945B19F9CFBF
:1043100051110AC08AE192E00E945B1986E0F50122
:1043200011928A95E9F7C0CF43130FC092130DC0C5
:10433000E1100BC0F8018583C8010E945B1986E07B
:10434000F50111928A95E9F74CCFC8010E94240922
:104350008823D1F2EE20C1F280911F02803238F220
:1043600020911A0230911B023A8329831B82DD823D
:10437000CC828E83CE010196B8CFE83CF105F8F6E9
:10438000FE2CEE2009F243131FC092131DC0809132
:104390001F0280FD10C0982F907F69F0F80185837F
:1043A000903F31F0982F907F905F8F70892B85839D
:1043B000C8010E945B1986E0F801AAE1B2E0019011
:1043C0000D928A95E1F70DCFC8010E942409811151
:1043D0008ECF80911F02816080931F02C8010E94CE
:1043E0005B19FFCEEE2009F48FCFC8010E9424098B
:1043F000F82E882309F488CF86E0F801AAE1B2E01C
:1044000001900D928A95E1F780911A0290911B021A
:104410000E94B2080E944120E4CE81E08E25FBCEAE
:104420001F93CF93DF93CDB7DEB767970FB6F8949E
:10443000DEBF0FBECDBF4B8B5C8B6D8B7E8B8F8BAE
:104440006111109254021A8A198A85E0FE0173964E
:10445000DE011D9601900D928A95E1F786E0FE013E
:104460003D96DE01179601900D928A95E1F7CE01F7
:1044700007960E949720882389F016E080915102C8
:1044800090912002891349C067960FB6F894DEBF59
:104490000FBECDBFDF91CF911F91089586E0FE0141
:1044A0003796DE01119601900D928A95E1F78A8583
:1044B0009B85892B11F38F81988589238F3FE9F2A2
:1044C0002091200230E0C901019687709927409120
:1044D00051024817190671F40E9497161092200293
:1044E0001092510286E0EAE1F2E0DF011D928A9526
:1044F000E9F7C3CF96E0929FD001939FB00D1124AE
:10450000AF5DBD4FFE01319601900D929A95E1F796
:10451000809320020E945108B0CF819FC0011124D6
:104520008F5D9D4F0E949720882309F4ADCF809125
:10453000510290E0019687709927809351029ECF97
:104540001F920F920FB60F9211242F933F934F9308
:104550005F936F937F938F939F93AF93BF93CF930B
:10456000DF93EF93FF93D091E900DF708091EC002F
:10457000C82FC17080FDC0E81092E9008091F00062
:10458000877F8093F00078940E94A2161092E90031
:104590008091F00088608093F000CD2BCF70C093A5
:1045A000E900FF91EF91DF91CF91BF91AF919F9182
:1045B0008F917F916F915F914F913F912F910F90CC
:1045C0000FBE0F901F9018951F920F920FB60F926B
:1045D00011242F933F934F935F936F937F938F9308
:1045E0009F93AF93BF93EF93FF938091E10082FF7E
:1045F00009C08091E20082FF05C08091E1008B7FBD
:104600008093E1008091DA0080FF24C08091D8007F
:1046100080FF20C08091DA008E7F8093DA00809145
:10462000D90080FF9BC080E189BD82E189BD09B4CA
:1046300000FEFDCF81E08093170380910A03811172
:1046400009C00E9418030E94E3038091E200846085
:104650008093E2008091E10080FF17C08091E2002A
:1046600080FF13C08091E2008E7F8093E2008091F2
:10467000E20080618093E2008091D80080628093A4
:10468000D80019BC85E0809317038091E10084FF76
:1046900029C08091E20084FF25C080E189BD82E1CC
:1046A00089BD89B5982F917080FFFBCF8091D8008C
:1046B0008F7D8093D8008091E1008F7E8093E10010
:1046C0008091E2008F7E8093E2008091E200816021
:1046D0008093E20080911803882309F445C084E0A8
:1046E000809317038091E10083FF27C08091E2004F
:1046F00083FF23C08091E100877F8093E10082E007
:1047000080931703109218038091E1008E7F8093AD
:10471000E1008091E2008E7F8093E2008091E200D0
:1047200080618093E20042E060E080E00E94B1039B
:104730008091F00088608093F000FF91EF91BF912D
:10474000AF919F918F917F916F915F914F913F9129
:104750002F910F900FBE0F901F90189519BC1092BB
:10476000170310920A0376CF8091E30087FD93E050
:1047700090931703B7CF78941F921FB61F921124FE
:104780008F939F93AF93BF93809103039091040302
:10479000A0910503B09106030196A11DB11D809360
:1047A000030390930403A0930503B0930603BF9102
:1047B000AF919F918F911F901FBE1F9018951F92D0
:1047C0001FB61F9211248F939F93AF93BF93809135
:1047D0000203811113C08091030390910403A091FF
:1047E0000503B09106034196A11DB11D80930303FB
:1047F00090930403A0930503B0930603BF91AF9178
:104800009F918F911F901FBE1F901895CDB7DEB757
:1048100060970FB6F894DEBF0FBECDBF84B7877F19
:1048200084BF0FB6F894A89580916000886180934A
:104830006000109260000FBE80E890E00FB6F89420
:1048400080936100909361000FBE85B7806885BF3B
:1048500085B7806885BF8BE196E09093E7018093F0
:10486000E6010E9418030E94E3038091E200846045
:104870008093E2007894809117038823A1F010912F
:10488000E9001F709091EC00892F817090FD80E805
:10489000182B1092E9008091E80083FD0E94A21677
:1048A0001F701093E90082E084BD93E095BD9AEFFC
:1048B00097BD80936E001092FE021092FF0210923C
:1048C00000031092010355985D9889B185FB8827F4
:1048D00080F98093560180915601882309F470C2B3
:1048E0001092710186E0809372010E94AD0D8111DA
:1048F0000E9411288091560181112EC0FE0135962B
:1049000086E0DF011D928A95E9F781E3898382E3DE
:104910008A8382E98B8381EF8C8384EF8D83349744
:10492000ACE4B1E0CE010B9621912D938E179F0739
:10493000D9F726E0E7E7F1E0DE011B9601900D9242
:104940002A95E1F7FC01A6E4B1E0CE014196219160
:104950002D938E179F07D9F78091560195E081110D
:1049600090E09093A10285E0891B8093A0020CE463
:1049700011E091E5E92E91E0F92EF80181918F0186
:104980008F3F11F00E941F06E016F106B1F706E412
:1049900011E08CE4E82E81E0F82ED8018D918D0194
:1049A0008F3F11F00E941F06E016F106B1F7E6E90D
:1049B000F2E080EA92E0A4EAB2E011921D928E1732
:1049C0009F07D9F790E080E00E948B2A893E9E4F96
:1049D00011F00E94ED1582E090E00E947D2A809304
:1049E000B7020E94D00F909395028093940283E0C7
:1049F00090E00E947D2A682F70E090E080E00E94A5
:104A0000DF09259A2D9882E88093800089E18093C0
:104A100081008FEF9FEF90938700809386000E9424
:104A20006E160E94AD0D811102C00E9414280E94D2
:104A30006E168091A20281113BC090E080E00E943E
:104A40008B2A893E9E4F21F00E94ED150E94751120
:104A500088E090E00E94852A6093F2027093F3024E
:104A60008093F4029093F5028091CA028360809350
:104A7000CA026E7F71F40E94751188E090E00E9476
:104A8000852A6093F2027093F3028093F40290936C
:104A9000F5020E9476050E946F058091F20280FF68
:104AA00004C060E086950E94121181E08093A2020A
:104AB00080915601811106C087EF8093620186EFD5
:104AC0008093610120916201A22FA295AF70B0E0A6
:104AD00091963C9191972F7081E090E0BC01022E5D
:104AE00001C0660F0A94EAF7462F4095432391963A
:104AF0004C93919792963C919297362B92963C9339
:104B0000929740916101E42FE295EF70F0E031A1BE
:104B10004F70042E01C0880F0A94EAF7982F9095E1
:104B2000932391A392A1892B82A390968C9190E0DC
:104B300002C0959587952A95E2F7817020A130E013
:104B400002C0359527954A95E2F792E020FF90E064
:104B5000892B8093B5029091560181E0982790931C
:104B6000B402891B8093A30287E591E09093FB0236
:104B70008093FA02F8E1EF2EF12CA0E47A2EBEEA3F
:104B8000CB2EB2E0DB2E10E1612E8091170312E1F3
:104B9000853009F44FC10E94E31381110E94B604CD
:104BA000E8EBF2E0A4EAB2E010E000E0802EAD9085
:104BB00081918A1509F44FC18A25912CBB24B394A5
:104BC0009B2D982309F442C10E94AD0D882399F0D2
:104BD00099828A82AB2081E009F480E08B830E9475
:104BE000C2048160782F9D838C8349815A816B81B7
:104BF0008D810E941022F801E854FD4F8081B82673
:104C0000B0828091C902882309F464C08091C802EF
:104C1000E091F202E695E81BE093C402823009F0CD
:104C200031C1F0E0E656FD4FE4910E2F10E0E5E5CE
:104C3000AE2EEDE0BE2E8091C502882361F0109269
:104C4000C5020E94EB0D9093C3028093C2021092A2
:104C5000C7021092C6020E94EB0DE091C202F091D1
:104C6000C3029C012E1B3F0B2F3F3F4798F520911D
:104C7000B0022223B1F01092B0022091AE02309126
:104C8000AF02821B930B8F3F9F4758F4205D3A4839
:104C90003093AF022093AE028091CA028860809365
:104CA000CA028090C6029090C702E00FF11FF093F5
:104CB000C302E093C20282EC92E0F5010995809173
:104CC000C6029091C702892B29F4892819F081E046
:104CD0008093B0028091B502E82FEE0FEE0F909115
:104CE0006201A92FA295AF70B0E090962C9130E0B0
:104CF0009F7002C0359527959A95E2F7217033276A
:104D000090916101A92FA295AF70B0E090964C915F
:104D100050E09F7002C0559547959A95E2F7CA01F9
:104D20008170992740FF02C082E090E0822B8E2B99
:104D30008093B5021091B4028F70E82FF0E0E05537
:104D4000FE4F80819091B302890F8093B30220E0DF
:104D5000843064F0E12FF0E0EF54FD4F80818F5FED
:104D6000808360E0812F0E94640F21E08091B30274
:104D70008D3F64F4E12FF0E0EF54FD4F80818150CE
:104D8000808361E0812F0E94640F21E08091B30253
:104D9000082E000C990B64E070E00E94042A8093B6
:104DA000B30221110E94F6070E94F40D9091B60201
:104DB000891709F4EACE0E94F40D8093B602E5CE7D
:104DC00086E0809371018FCD80911703843021F1AB
:104DD00080E00E941005109202030FB6F894A89587
:104DE000E09260000FBE7092600083B7817F8460A4
:104DF00083BF83B7816083BF7894889583B78E7FA4
:104E000083BF0FB6F894A895809160008861809365
:104E10006000109260000FBE80911603882351F04D
:104E20000E94E313E4EAF2E08191811185C0CE167D
:104E3000DF06D1F780911703853009F4C5CF0E94B2
:104E400097160E946E160E94F40DA5CE9394BB0C8B
:104E500026E09212B5CE0F5F1F4F0A30110509F000
:104E6000A5CE8FEF8B878C871D860E94C204816040
:104E7000782F9F878E874B855C856D858F850E94F7
:104E80001022BFCE863059F4F0E0E956FD4FE49190
:104E90000E2F10E075E4A72E7DE0B72ECCCE893022
:104EA00061F4E695F0E0EC56FD4FE4910E2F10E032
:104EB00066E9A62E6CE0B62EBECE8F3061F4E69584
:104EC000F0E0EF56FD4FE4910E2F10E05DEFA52EC0
:104ED0005BE0B52EB0CE853159F4F0E0E257FD4FDE
:104EE000E4910E2F10E046E7A42E4BE0B42EA3CEA3
:104EF00008E210E096EEA92E9AE0B92E883109F466
:104F00009ACE833249F4ECE8F2E0059114913CEE3C
:104F1000A32E3CE0B32E8FCE04EF11E029EAA22E9F
:104F20002AE0B22E843209F486CE00ED17E082EA40
:104F3000A82E84E0B82E7FCE69BC19BD09B400FE4E
:104F4000FDCF8091D8008F7D8093D8008091E000C4
:104F500082608093E0008091E00081FDFCCF0E94A0
:104F6000971668CF8EE1489B02C08150E1F7489BBD
:104F7000FECF0895589880E28A95F1F7589A0895DF
:104F8000FC013BE03A95F1F798E020E080E031E069
:104F900040E14A95F1F7880F489B02C081602327C2
:104FA00042E04A95F1F7000040E14A95F1F791504F
:104FB00079F790E19A95F1F799B132E03A95F1F7E6
:104FC000000040E14A95F1F7917092272081920FFD
:104FD00090830895EF92FF920F931F93CF93DF93E7
:104FE0000F92CDB7DEB719828C017C01E60EF11C61
:104FF0000E151F0561F481E09981911180E00F90F9
:10500000DF91CF911F910F91FF90EF9008950E9433
:10501000B227CE0101960E94C027F80181938F012B
:10502000E7CF509A589A08955098589AE89AE9E626
:10503000F0E080818C7F808308956150770B91E050
:1050400001C0990F6A95EAF720E031E0911108C09C
:10505000222391F0589A80E28A95F1F758980895A2
:10506000492F482339F0589A232740E24A95F1F70F
:105070009695ECCF5898F9CF5898EDCFFF920F93B3
:105080001F93CF93DF93EC018C01060F111DC01706
:10509000D10731F4DF91CF911F910F91FF900895C7
:1050A000F9900E94BA2768E08F2D0E941D28EFCF4B
:1050B0001F920F920FB60F921124EF92FF920F934F
:1050C0001F932F933F934F935F936F937F938F9390
:1050D0009F93AF93BF93EF93FF93CF93DF930F9281
:1050E000CDB7DEB719820E94B227CE0101960E9489
:1050F000C027A82FA695A695A695282F229525709E
:105100009A2F9570290F922F937026952695920FBE
:10511000982797708981982B09F075C0A83008F0FE
:1051200072C080E18A95F1F7589A509AB2E0BA9528
:10513000F1F700C05898EA2EF12CEAE0AE9FD001BA
:105140001124A050BF4F1896ED91FC9119973097FC
:10515000B1F06091AE017091AF0116962D913C9126
:105160001797260F371F13968D919C911497680FF0
:10517000791F15964C91159712968C9109958AE096
:105180008E9DF0018F9DF00D1124E050FF4F658141
:10519000662351F02091AE013091AF018681978155
:1051A000820F931F0E943E280E94BA27F0E1FA95D1
:1051B000F1F758985098589A80E18A95F1F78AE06B
:1051C0008E9D80018F9D100D112400501F4FD8011E
:1051D00012966C911297662371F12091AE01309175
:1051E000AF0113968D919C91820F931F0E94EA2725
:1051F000D801ED91FC91882311F088E001C082E094
:1052000080830E94B2270F90DF91CF91FF91EF91A1
:10521000BF91AF919F918F917F916F915F914F91CE
:105220003F912F911F910F91FF90EF900F900FBE24
:105230000F901F901895ED91FC91DFCF0F931F9366
:10524000CF93DF93EC0108970CF0A9C08AE08C9F04
:10525000F0018D9FF00D1124E050FF4F808191816E
:10526000892B09F49CC0F894509A589885E08A9547
:10527000F1F700008C2F869585709C2F9570890F13
:10528000982F937086958695890F8E0193E0000F75
:10529000111F9A95E1F7082B0E94BA2700C068E019
:1052A000802F0E941D28A0E1AA95F1F75098589AE6
:1052B000489B27C087E090E0489925C08AE08C9FF2
:1052C00080018D9F100D112400501F4FF801658142
:1052D0006623A1F12091AE013091AF0186819781C3
:1052E000820F931F0E94EA27811128C0509A589A72
:1052F000D801ED91FC9182E08083789482E090E087
:1053000016C000C0D5CF0197B9F4509A589A8AE0D8
:105310008C9FF0018D9FF00D1124E050FF4F019004
:10532000F081E02D81E08083789481E090E0DF914E
:10533000CF911F910F91089500C0BECF0E94B22758
:10534000B0E2BA95F1F75898509AE0E1EA95F1F792
:105350008AE08C9FF0018D9FF00D1124E050FF4FEB
:105360006281662351F02091AE013091AF018381BB
:105370009481820F931F0E943E280E94BA278AE0E0
:105380008C9FF0018D9FF00D1124E050FF4F019094
:10539000F081E02D1082789490E080E0C8CF84E026
:1053A00090E0C5CFDB018F939F930E945E2ABF914F
:1053B000AF91A29F800D911DA39F900DB29F900D64
:1053C0001124089587FB082E062687FD819567FD29
:1053D00061950E94712A0EF4919507FC81950895BC
:1053E000AA1BBB1B51E107C0AA1FBB1FA617B7070B
:1053F00010F0A61BB70B881F991F5A95A9F7809527
:105400009095BC01CD01089597FB072E16F40094EA
:1054100007D077FD09D00E94F02907FC05D03EF4A3
:10542000909581959F4F0895709561957F4F089550
:10543000A1E21A2EAA1BBB1BFD010DC0AA1FBB1F98
:10544000EE1FFF1FA217B307E407F50720F0A21B0A
:10545000B30BE40BF50B661F771F881F991F1A9477
:1054600069F760957095809590959B01AC01BD01A1
:10547000CF010895EE0FFF1F0590F491E02D0994E0
:105480000E94482A332312F48A1B9B0B0C94592A3E
:10549000A29FB001B39FC001A39F700D811D112475
:1054A000911DB29F700D811D1124911D08950E94C0
:1054B000482AB7FF0895821B930B08950E94482A3B
:1054C000A59F900DB49F900DA49F800D911D112458
:1054D0000895B7FF0C945E2A0E945E2A821B930BEC
:1054E0000895991B79E004C0991F961708F0961B40
:1054F000881F7A95C9F780950895F999FECF92BDD6
:1055000081BDF89A992780B50895A6E1B0E044E0FE
:1055100050E00C94B72AA8E1B0E042E050E00C94CF
:10552000B72A262FF999FECF92BD81BDF89A01972F
:1055300000B4021639F01FBA20BD0FB6F894FA9ADB
:10554000F99A0FBE08950396272F0E94922A0E946F
:10555000912A252F0E94922A242F0C94922A019698
:10556000272F0E94922A0C94912ADC01CB01FC0186
:10557000F999FECF06C0F2BDE1BDF89A319600B4AC
:105580000D9241505040B8F70895FC0141505040F1
:1055900030F001900616D1F73197CF010895882792
:1055A00099270895FB01DC0104C08D9101908019B9
:1055B00021F441505040C8F7881B990B0895FB0116
:1055C000DC0102C001900D9241505040D8F708957F
:1055D000F894FFCF360936093F093F0941093F09D1
:1055E0003F093F093609360946093F093F0946097F
:1055F0008517AD174319AD174319E0170118431963
:10560000FE180B198E1C8E1C081D081D651DC31C61
:0C561000C31CC31C7F1D551E641E641EBD
:10561C00F0010000000100000000F0010000000596
:10562C0001000000F0010000000106000000F00184
:10563C000000000107000000F00104080000000059
:10564C000000F001010C000000000000F001080D4A
:10565C00000000000000F1F49392379431F0F5F65D
:10566C00F7000000000001A404310AA3042D0A294C
:10567C000A333201191A1B1C1D1E1F202122010284
:10568C0001000C000C0C0194979337F0338182834A
:10569C00E200E900EA00B500B600B700CD008301D6
:1056AC00CC008A01920194012102230224022502DA
:1056BC00260227022A02B300B4006F0070007202A7
:1056CC0000FF0100010000FFFF0000010001FF00CE
:1056DC000001020202020606060909090909090F5E
:1056EC000F0F0F0F0F15151518191919191919195D
:0656FC0019191923240016
:00000001FF
